{
  "contractName": "SolnSquareVerifier",
  "abi": [
    {
      "inputs": [
        {
          "internalType": "address",
          "name": "verifierContract",
          "type": "address"
        }
      ],
      "payable": false,
      "stateMutability": "nonpayable",
      "type": "constructor"
    },
    {
      "anonymous": false,
      "inputs": [
        {
          "indexed": true,
          "internalType": "address",
          "name": "owner",
          "type": "address"
        },
        {
          "indexed": true,
          "internalType": "address",
          "name": "approved",
          "type": "address"
        },
        {
          "indexed": true,
          "internalType": "uint256",
          "name": "tokenId",
          "type": "uint256"
        }
      ],
      "name": "Approval",
      "type": "event"
    },
    {
      "anonymous": false,
      "inputs": [
        {
          "indexed": true,
          "internalType": "address",
          "name": "owner",
          "type": "address"
        },
        {
          "indexed": true,
          "internalType": "address",
          "name": "operator",
          "type": "address"
        },
        {
          "indexed": false,
          "internalType": "bool",
          "name": "approved",
          "type": "bool"
        }
      ],
      "name": "ApprovalForAll",
      "type": "event"
    },
    {
      "anonymous": false,
      "inputs": [
        {
          "indexed": true,
          "internalType": "address",
          "name": "previousOwner",
          "type": "address"
        },
        {
          "indexed": true,
          "internalType": "address",
          "name": "newOwner",
          "type": "address"
        }
      ],
      "name": "OwnershipTransferred",
      "type": "event"
    },
    {
      "anonymous": false,
      "inputs": [
        {
          "indexed": false,
          "internalType": "address",
          "name": "account",
          "type": "address"
        }
      ],
      "name": "Paused",
      "type": "event"
    },
    {
      "anonymous": false,
      "inputs": [
        {
          "indexed": false,
          "internalType": "address",
          "name": "to",
          "type": "address"
        },
        {
          "indexed": false,
          "internalType": "uint256",
          "name": "tokenId",
          "type": "uint256"
        },
        {
          "indexed": false,
          "internalType": "bytes32",
          "name": "proofHash",
          "type": "bytes32"
        }
      ],
      "name": "SolutionAdded",
      "type": "event"
    },
    {
      "anonymous": false,
      "inputs": [
        {
          "indexed": true,
          "internalType": "address",
          "name": "from",
          "type": "address"
        },
        {
          "indexed": true,
          "internalType": "address",
          "name": "to",
          "type": "address"
        },
        {
          "indexed": true,
          "internalType": "uint256",
          "name": "tokenId",
          "type": "uint256"
        }
      ],
      "name": "Transfer",
      "type": "event"
    },
    {
      "anonymous": false,
      "inputs": [
        {
          "indexed": false,
          "internalType": "address",
          "name": "account",
          "type": "address"
        }
      ],
      "name": "Unpaused",
      "type": "event"
    },
    {
      "constant": true,
      "inputs": [
        {
          "internalType": "bytes32",
          "name": "_myid",
          "type": "bytes32"
        },
        {
          "internalType": "string",
          "name": "_result",
          "type": "string"
        }
      ],
      "name": "__callback",
      "outputs": [],
      "payable": false,
      "stateMutability": "pure",
      "type": "function"
    },
    {
      "constant": true,
      "inputs": [
        {
          "internalType": "bytes32",
          "name": "_myid",
          "type": "bytes32"
        },
        {
          "internalType": "string",
          "name": "_result",
          "type": "string"
        },
        {
          "internalType": "bytes",
          "name": "_proof",
          "type": "bytes"
        }
      ],
      "name": "__callback",
      "outputs": [],
      "payable": false,
      "stateMutability": "pure",
      "type": "function"
    },
    {
      "constant": false,
      "inputs": [
        {
          "internalType": "address",
          "name": "to",
          "type": "address"
        },
        {
          "internalType": "uint256",
          "name": "tokenId",
          "type": "uint256"
        }
      ],
      "name": "approve",
      "outputs": [],
      "payable": false,
      "stateMutability": "nonpayable",
      "type": "function"
    },
    {
      "constant": true,
      "inputs": [
        {
          "internalType": "address",
          "name": "owner",
          "type": "address"
        }
      ],
      "name": "balanceOf",
      "outputs": [
        {
          "internalType": "uint256",
          "name": "",
          "type": "uint256"
        }
      ],
      "payable": false,
      "stateMutability": "view",
      "type": "function"
    },
    {
      "constant": true,
      "inputs": [],
      "name": "baseTokenURI",
      "outputs": [
        {
          "internalType": "string",
          "name": "",
          "type": "string"
        }
      ],
      "payable": false,
      "stateMutability": "view",
      "type": "function"
    },
    {
      "constant": true,
      "inputs": [
        {
          "internalType": "uint256",
          "name": "tokenId",
          "type": "uint256"
        }
      ],
      "name": "getApproved",
      "outputs": [
        {
          "internalType": "address",
          "name": "",
          "type": "address"
        }
      ],
      "payable": false,
      "stateMutability": "view",
      "type": "function"
    },
    {
      "constant": true,
      "inputs": [
        {
          "internalType": "address",
          "name": "owner",
          "type": "address"
        },
        {
          "internalType": "address",
          "name": "operator",
          "type": "address"
        }
      ],
      "name": "isApprovedForAll",
      "outputs": [
        {
          "internalType": "bool",
          "name": "",
          "type": "bool"
        }
      ],
      "payable": false,
      "stateMutability": "view",
      "type": "function"
    },
    {
      "constant": true,
      "inputs": [],
      "name": "isOwner",
      "outputs": [
        {
          "internalType": "bool",
          "name": "",
          "type": "bool"
        }
      ],
      "payable": false,
      "stateMutability": "view",
      "type": "function"
    },
    {
      "constant": true,
      "inputs": [],
      "name": "name",
      "outputs": [
        {
          "internalType": "string",
          "name": "",
          "type": "string"
        }
      ],
      "payable": false,
      "stateMutability": "view",
      "type": "function"
    },
    {
      "constant": true,
      "inputs": [],
      "name": "owner",
      "outputs": [
        {
          "internalType": "address",
          "name": "",
          "type": "address"
        }
      ],
      "payable": false,
      "stateMutability": "view",
      "type": "function"
    },
    {
      "constant": true,
      "inputs": [
        {
          "internalType": "uint256",
          "name": "tokenId",
          "type": "uint256"
        }
      ],
      "name": "ownerOf",
      "outputs": [
        {
          "internalType": "address",
          "name": "",
          "type": "address"
        }
      ],
      "payable": false,
      "stateMutability": "view",
      "type": "function"
    },
    {
      "constant": false,
      "inputs": [],
      "name": "pause",
      "outputs": [],
      "payable": false,
      "stateMutability": "nonpayable",
      "type": "function"
    },
    {
      "constant": true,
      "inputs": [],
      "name": "paused",
      "outputs": [
        {
          "internalType": "bool",
          "name": "",
          "type": "bool"
        }
      ],
      "payable": false,
      "stateMutability": "view",
      "type": "function"
    },
    {
      "constant": false,
      "inputs": [],
      "name": "renounceOwnership",
      "outputs": [],
      "payable": false,
      "stateMutability": "nonpayable",
      "type": "function"
    },
    {
      "constant": false,
      "inputs": [
        {
          "internalType": "address",
          "name": "from",
          "type": "address"
        },
        {
          "internalType": "address",
          "name": "to",
          "type": "address"
        },
        {
          "internalType": "uint256",
          "name": "tokenId",
          "type": "uint256"
        }
      ],
      "name": "safeTransferFrom",
      "outputs": [],
      "payable": false,
      "stateMutability": "nonpayable",
      "type": "function"
    },
    {
      "constant": false,
      "inputs": [
        {
          "internalType": "address",
          "name": "from",
          "type": "address"
        },
        {
          "internalType": "address",
          "name": "to",
          "type": "address"
        },
        {
          "internalType": "uint256",
          "name": "tokenId",
          "type": "uint256"
        },
        {
          "internalType": "bytes",
          "name": "_data",
          "type": "bytes"
        }
      ],
      "name": "safeTransferFrom",
      "outputs": [],
      "payable": false,
      "stateMutability": "nonpayable",
      "type": "function"
    },
    {
      "constant": false,
      "inputs": [
        {
          "internalType": "address",
          "name": "to",
          "type": "address"
        },
        {
          "internalType": "bool",
          "name": "approved",
          "type": "bool"
        }
      ],
      "name": "setApprovalForAll",
      "outputs": [],
      "payable": false,
      "stateMutability": "nonpayable",
      "type": "function"
    },
    {
      "constant": true,
      "inputs": [
        {
          "internalType": "bytes4",
          "name": "interfaceId",
          "type": "bytes4"
        }
      ],
      "name": "supportsInterface",
      "outputs": [
        {
          "internalType": "bool",
          "name": "",
          "type": "bool"
        }
      ],
      "payable": false,
      "stateMutability": "view",
      "type": "function"
    },
    {
      "constant": true,
      "inputs": [],
      "name": "symbol",
      "outputs": [
        {
          "internalType": "string",
          "name": "",
          "type": "string"
        }
      ],
      "payable": false,
      "stateMutability": "view",
      "type": "function"
    },
    {
      "constant": true,
      "inputs": [
        {
          "internalType": "uint256",
          "name": "index",
          "type": "uint256"
        }
      ],
      "name": "tokenByIndex",
      "outputs": [
        {
          "internalType": "uint256",
          "name": "",
          "type": "uint256"
        }
      ],
      "payable": false,
      "stateMutability": "view",
      "type": "function"
    },
    {
      "constant": true,
      "inputs": [
        {
          "internalType": "address",
          "name": "owner",
          "type": "address"
        },
        {
          "internalType": "uint256",
          "name": "index",
          "type": "uint256"
        }
      ],
      "name": "tokenOfOwnerByIndex",
      "outputs": [
        {
          "internalType": "uint256",
          "name": "",
          "type": "uint256"
        }
      ],
      "payable": false,
      "stateMutability": "view",
      "type": "function"
    },
    {
      "constant": true,
      "inputs": [
        {
          "internalType": "uint256",
          "name": "tokenId",
          "type": "uint256"
        }
      ],
      "name": "tokenURI",
      "outputs": [
        {
          "internalType": "string",
          "name": "",
          "type": "string"
        }
      ],
      "payable": false,
      "stateMutability": "view",
      "type": "function"
    },
    {
      "constant": true,
      "inputs": [],
      "name": "totalSupply",
      "outputs": [
        {
          "internalType": "uint256",
          "name": "",
          "type": "uint256"
        }
      ],
      "payable": false,
      "stateMutability": "view",
      "type": "function"
    },
    {
      "constant": false,
      "inputs": [
        {
          "internalType": "address",
          "name": "from",
          "type": "address"
        },
        {
          "internalType": "address",
          "name": "to",
          "type": "address"
        },
        {
          "internalType": "uint256",
          "name": "tokenId",
          "type": "uint256"
        }
      ],
      "name": "transferFrom",
      "outputs": [],
      "payable": false,
      "stateMutability": "nonpayable",
      "type": "function"
    },
    {
      "constant": false,
      "inputs": [
        {
          "internalType": "address",
          "name": "newOwner",
          "type": "address"
        }
      ],
      "name": "transferOwnership",
      "outputs": [],
      "payable": false,
      "stateMutability": "nonpayable",
      "type": "function"
    },
    {
      "constant": false,
      "inputs": [],
      "name": "unpause",
      "outputs": [],
      "payable": false,
      "stateMutability": "nonpayable",
      "type": "function"
    },
    {
      "constant": false,
      "inputs": [
        {
          "internalType": "address",
          "name": "to",
          "type": "address"
        },
        {
          "internalType": "uint256",
          "name": "tokenId",
          "type": "uint256"
        },
        {
          "components": [
            {
              "components": [
                {
                  "internalType": "uint256",
                  "name": "X",
                  "type": "uint256"
                },
                {
                  "internalType": "uint256",
                  "name": "Y",
                  "type": "uint256"
                }
              ],
              "internalType": "struct Pairing.G1Point",
              "name": "a",
              "type": "tuple"
            },
            {
              "components": [
                {
                  "internalType": "uint256[2]",
                  "name": "X",
                  "type": "uint256[2]"
                },
                {
                  "internalType": "uint256[2]",
                  "name": "Y",
                  "type": "uint256[2]"
                }
              ],
              "internalType": "struct Pairing.G2Point",
              "name": "b",
              "type": "tuple"
            },
            {
              "components": [
                {
                  "internalType": "uint256",
                  "name": "X",
                  "type": "uint256"
                },
                {
                  "internalType": "uint256",
                  "name": "Y",
                  "type": "uint256"
                }
              ],
              "internalType": "struct Pairing.G1Point",
              "name": "c",
              "type": "tuple"
            }
          ],
          "internalType": "struct SquareVerifier.Proof",
          "name": "proof",
          "type": "tuple"
        },
        {
          "internalType": "uint256[2]",
          "name": "inputs",
          "type": "uint256[2]"
        }
      ],
      "name": "mint",
      "outputs": [],
      "payable": false,
      "stateMutability": "nonpayable",
      "type": "function"
    },
    {
      "constant": false,
      "inputs": [
        {
          "internalType": "address",
          "name": "to",
          "type": "address"
        },
        {
          "internalType": "uint256",
          "name": "tokenId",
          "type": "uint256"
        },
        {
          "internalType": "string",
          "name": "tokenURI",
          "type": "string"
        }
      ],
      "name": "mint",
      "outputs": [
        {
          "internalType": "bool",
          "name": "",
          "type": "bool"
        }
      ],
      "payable": false,
      "stateMutability": "nonpayable",
      "type": "function"
    }
  ],
  "bytecode": "0x60806040523480156200001157600080fd5b506040516200445738038062004457833981810160405262000037919081019062000429565b6040518060400160405280601081526020017f5265616c20537461746520486f6d6573000000000000000000000000000000008152506040518060400160405280600381526020017f52534800000000000000000000000000000000000000000000000000000000008152506040518060600160405280603f815260200162004418603f91398282826000620000d26200028360201b60201c565b9050806000806101000a81548173ffffffffffffffffffffffffffffffffffffffff021916908373ffffffffffffffffffffffffffffffffffffffff1602179055508073ffffffffffffffffffffffffffffffffffffffff16600073ffffffffffffffffffffffffffffffffffffffff167f8be0079c531659141344cd1fd0a4f28419497f9722a3daafe3b4186f6b6457e060405160405180910390a35060008060146101000a81548160ff021916908315150217905550620001a26301ffc9a760e01b6200028b60201b60201c565b620001ba6380ac58cd60e01b6200028b60201b60201c565b620001d263780e9d6360e01b6200028b60201b60201c565b82600f9080519060200190620001ea92919062000363565b5081601090805190602001906200020392919062000363565b5080601190805190602001906200021c92919062000363565b5062000235635b5e139f60e01b6200028b60201b60201c565b50505050505080601360006101000a81548173ffffffffffffffffffffffffffffffffffffffff021916908373ffffffffffffffffffffffffffffffffffffffff1602179055505062000518565b600033905090565b63ffffffff60e01b817bffffffffffffffffffffffffffffffffffffffffffffffffffffffff19161415620002f7576040517f08c379a0000000000000000000000000000000000000000000000000000000008152600401620002ee9062000497565b60405180910390fd5b6001806000837bffffffffffffffffffffffffffffffffffffffffffffffffffffffff19167bffffffffffffffffffffffffffffffffffffffffffffffffffffffff1916815260200190815260200160002060006101000a81548160ff02191690831515021790555050565b828054600181600116156101000203166002900490600052602060002090601f016020900481019282601f10620003a657805160ff1916838001178555620003d7565b82800160010185558215620003d7579182015b82811115620003d6578251825591602001919060010190620003b9565b5b509050620003e69190620003ea565b5090565b6200040f91905b808211156200040b576000816000905550600101620003f1565b5090565b90565b6000815190506200042381620004fe565b92915050565b6000602082840312156200043c57600080fd5b60006200044c8482850162000412565b91505092915050565b600062000464601c83620004b9565b91507f4552433136353a20696e76616c696420696e74657266616365206964000000006000830152602082019050919050565b60006020820190508181036000830152620004b28162000455565b9050919050565b600082825260208201905092915050565b6000620004d782620004de565b9050919050565b600073ffffffffffffffffffffffffffffffffffffffff82169050919050565b6200050981620004ca565b81146200051557600080fd5b50565b613ef080620005286000396000f3fe608060405234801561001057600080fd5b50600436106101c45760003560e01c80636352211e116100f9578063a22cb46511610097578063d3fc986411610071578063d3fc9864146104cb578063d547cfb7146104fb578063e985e9c514610519578063f2fde38b14610549576101c4565b8063a22cb46514610463578063b88d4fde1461047f578063c87b56dd1461049b576101c4565b80638456cb59116100d35780638456cb59146103ff5780638da5cb5b146104095780638f32d59b1461042757806395d89b4114610445576101c4565b80636352211e1461039557806370a08231146103c5578063715018a6146103f5576101c4565b80632f745c591161016657806342842e0e1161014057806342842e0e1461030f5780634f6ccce71461032b5780635c975abb1461035b57806361d50f7314610379576101c4565b80632f745c59146102b957806338bbfa50146102e95780633f4ba83a14610305576101c4565b8063095ea7b3116101a2578063095ea7b31461024757806318160ddd1461026357806323b872dd1461028157806327dc297e1461029d576101c4565b806301ffc9a7146101c957806306fdde03146101f9578063081812fc14610217575b600080fd5b6101e360048036036101de919081019061302d565b610565565b6040516101f0919061392e565b60405180910390f35b6102016105cd565b60405161020e9190613949565b60405180910390f35b610231600480360361022c919081019061307f565b61066f565b60405161023e9190613875565b60405180910390f35b610261600480360361025c9190810190612e29565b6106f4565b005b61026b6108af565b6040516102789190613bbd565b60405180910390f35b61029b60048036036102969190810190612d23565b6108bc565b005b6102b760048036036102b29190810190612f5a565b6108df565b005b6102d360048036036102ce9190810190612e29565b610922565b6040516102e09190613bbd565b60405180910390f35b61030360048036036102fe9190810190612fae565b610995565b005b61030d61099a565b005b61032960048036036103249190810190612d23565b610a8a565b005b6103456004803603610340919081019061307f565b610aaa565b6040516103529190613bbd565b60405180910390f35b610363610ade565b604051610370919061392e565b60405180910390f35b610393600480360361038e9190810190612ecc565b610af4565b005b6103af60048036036103aa919081019061307f565b610c15565b6040516103bc9190613875565b60405180910390f35b6103df60048036036103da9190810190612cbe565b610cc7565b6040516103ec9190613bbd565b60405180910390f35b6103fd610d86565b005b610407610e8c565b005b610411610f7e565b60405161041e9190613875565b60405180910390f35b61042f610fa7565b60405161043c919061392e565b60405180910390f35b61044d611005565b60405161045a9190613949565b60405180910390f35b61047d60048036036104789190810190612ded565b6110a7565b005b61049960048036036104949190810190612d72565b6111dd565b005b6104b560048036036104b0919081019061307f565b611203565b6040516104c29190613949565b60405180910390f35b6104e560048036036104e09190810190612e65565b6113bf565b6040516104f2919061392e565b60405180910390f35b610503611427565b6040516105109190613949565b60405180910390f35b610533600480360361052e9190810190612ce7565b6114c9565b604051610540919061392e565b60405180910390f35b610563600480360361055e9190810190612cbe565b61155d565b005b600060016000837bffffffffffffffffffffffffffffffffffffffffffffffffffffffff19167bffffffffffffffffffffffffffffffffffffffffffffffffffffffff1916815260200190815260200160002060009054906101000a900460ff169050919050565b6060600f8054600181600116156101000203166002900480601f0160208091040260200160405190810160405280929190818152602001828054600181600116156101000203166002900480156106655780601f1061063a57610100808354040283529160200191610665565b820191906000526020600020905b81548152906001019060200180831161064857829003601f168201915b5050505050905090565b600061067a826115b0565b6106b9576040517f08c379a00000000000000000000000000000000000000000000000000000000081526004016106b090613b2b565b60405180910390fd5b6003600083815260200190815260200160002060009054906101000a900473ffffffffffffffffffffffffffffffffffffffff169050919050565b60006106ff82610c15565b90508073ffffffffffffffffffffffffffffffffffffffff168373ffffffffffffffffffffffffffffffffffffffff161415610770576040517f08c379a00000000000000000000000000000000000000000000000000000000081526004016107679061398b565b60405180910390fd5b8073ffffffffffffffffffffffffffffffffffffffff1661078f611622565b73ffffffffffffffffffffffffffffffffffffffff1614806107be57506107bd816107b8611622565b6114c9565b5b6107fd576040517f08c379a00000000000000000000000000000000000000000000000000000000081526004016107f490613a6b565b60405180910390fd5b826003600084815260200190815260200160002060006101000a81548173ffffffffffffffffffffffffffffffffffffffff021916908373ffffffffffffffffffffffffffffffffffffffff160217905550818373ffffffffffffffffffffffffffffffffffffffff168273ffffffffffffffffffffffffffffffffffffffff167f8c5be1e5ebec7d5bd14f71427d1e84f3dd0314c0f7b2291e5b200ac8c7c3b92560405160405180910390a4505050565b6000600880549050905090565b6108c6338261162a565b6108cf57600080fd5b6108da8383836116bf565b505050565b61091e828260006040519080825280601f01601f1916602001820160405280156109185781602001600182028038833980820191505090505b50610995565b5050565b600061092d83610cc7565b821061093857600080fd5b600660008473ffffffffffffffffffffffffffffffffffffffff1673ffffffffffffffffffffffffffffffffffffffff168152602001908152602001600020828154811061098257fe5b9060005260206000200154905092915050565b505050565b6109a2610fa7565b6109e1576040517f08c379a00000000000000000000000000000000000000000000000000000000081526004016109d890613aeb565b60405180910390fd5b600060149054906101000a900460ff16610a30576040517f08c379a0000000000000000000000000000000000000000000000000000000008152600401610a279061396b565b60405180910390fd5b60008060146101000a81548160ff0219169083151502179055507f5db9ee0a495bf2e6ff9c91a7834c1ba4fdd244a5e8aa4e537bd38aeae4b073aa610a73611622565b604051610a809190613890565b60405180910390a1565b610aa5838383604051806020016040528060008152506111dd565b505050565b6000610ab46108af565b8210610abf57600080fd5b60088281548110610acc57fe5b90600052602060002001549050919050565b60008060149054906101000a900460ff16905090565b601360009054906101000a900473ffffffffffffffffffffffffffffffffffffffff1673ffffffffffffffffffffffffffffffffffffffff166343cd76fc83836040518363ffffffff1660e01b8152600401610b51929190613b92565b60206040518083038186803b158015610b6957600080fd5b505afa158015610b7d573d6000803e3d6000fd5b505050506040513d601f19601f82011682018060405250610ba19190810190612f31565b610be0576040517f08c379a0000000000000000000000000000000000000000000000000000000008152600401610bd7906139eb565b60405180910390fd5b610bf48484610bef85856116e3565b611726565b610c0e8484604051806020016040528060008152506113bf565b5050505050565b6000806002600084815260200190815260200160002060009054906101000a900473ffffffffffffffffffffffffffffffffffffffff169050600073ffffffffffffffffffffffffffffffffffffffff168173ffffffffffffffffffffffffffffffffffffffff161415610cbe576040517f08c379a0000000000000000000000000000000000000000000000000000000008152600401610cb590613b2b565b60405180910390fd5b80915050919050565b60008073ffffffffffffffffffffffffffffffffffffffff168273ffffffffffffffffffffffffffffffffffffffff161415610d38576040517f08c379a0000000000000000000000000000000000000000000000000000000008152600401610d2f90613b0b565b60405180910390fd5b610d7f600460008473ffffffffffffffffffffffffffffffffffffffff1673ffffffffffffffffffffffffffffffffffffffff16815260200190815260200160002061189d565b9050919050565b610d8e610fa7565b610dcd576040517f08c379a0000000000000000000000000000000000000000000000000000000008152600401610dc490613aeb565b60405180910390fd5b600073ffffffffffffffffffffffffffffffffffffffff166000809054906101000a900473ffffffffffffffffffffffffffffffffffffffff1673ffffffffffffffffffffffffffffffffffffffff167f8be0079c531659141344cd1fd0a4f28419497f9722a3daafe3b4186f6b6457e060405160405180910390a360008060006101000a81548173ffffffffffffffffffffffffffffffffffffffff021916908373ffffffffffffffffffffffffffffffffffffffff160217905550565b610e94610fa7565b610ed3576040517f08c379a0000000000000000000000000000000000000000000000000000000008152600401610eca90613aeb565b60405180910390fd5b600060149054906101000a900460ff1615610f23576040517f08c379a0000000000000000000000000000000000000000000000000000000008152600401610f1a90613aab565b60405180910390fd5b6001600060146101000a81548160ff0219169083151502179055507f62e78cea01bee320cd4e420270b5ea74000d11b0c9f74754ebdbfc544b05a258610f67611622565b604051610f749190613890565b60405180910390a1565b60008060009054906101000a900473ffffffffffffffffffffffffffffffffffffffff16905090565b60008060009054906101000a900473ffffffffffffffffffffffffffffffffffffffff1673ffffffffffffffffffffffffffffffffffffffff16610fe9611622565b73ffffffffffffffffffffffffffffffffffffffff1614905090565b606060108054600181600116156101000203166002900480601f01602080910402602001604051908101604052809291908181526020018280546001816001161561010002031660029004801561109d5780601f106110725761010080835404028352916020019161109d565b820191906000526020600020905b81548152906001019060200180831161108057829003601f168201915b5050505050905090565b3373ffffffffffffffffffffffffffffffffffffffff168273ffffffffffffffffffffffffffffffffffffffff1614156110e057600080fd5b80600560003373ffffffffffffffffffffffffffffffffffffffff1673ffffffffffffffffffffffffffffffffffffffff16815260200190815260200160002060008473ffffffffffffffffffffffffffffffffffffffff1673ffffffffffffffffffffffffffffffffffffffff16815260200190815260200160002060006101000a81548160ff0219169083151502179055508173ffffffffffffffffffffffffffffffffffffffff163373ffffffffffffffffffffffffffffffffffffffff167f17307eab39ab6107e8899845ad3d59bd9653f200f220920489ca2b5937696c31836040516111d1919061392e565b60405180910390a35050565b6111e88484846108bc565b6111f4848484846118ab565b6111fd57600080fd5b50505050565b606061120e826115b0565b61124d576040517f08c379a000000000000000000000000000000000000000000000000000000000815260040161124490613a8b565b60405180910390fd5b6060601260008481526020019081526020016000208054600181600116156101000203166002900480601f0160208091040260200160405190810160405280929190818152602001828054600181600116156101000203166002900480156112f65780601f106112cb576101008083540402835291602001916112f6565b820191906000526020600020905b8154815290600101906020018083116112d957829003601f168201915b5050505050905060008151141561131357611310836119c2565b90505b6113b760118054600181600116156101000203166002900480601f0160208091040260200160405190810160405280929190818152602001828054600181600116156101000203166002900480156113ac5780601f10611381576101008083540402835291602001916113ac565b820191906000526020600020905b81548152906001019060200180831161138f57829003601f168201915b505050505082611aef565b915050919050565b60006113c9610fa7565b611408576040517f08c379a00000000000000000000000000000000000000000000000000000000081526004016113ff90613aeb565b60405180910390fd5b6114128484611b33565b61141c8383611b54565b600190509392505050565b606060118054600181600116156101000203166002900480601f0160208091040260200160405190810160405280929190818152602001828054600181600116156101000203166002900480156114bf5780601f10611494576101008083540402835291602001916114bf565b820191906000526020600020905b8154815290600101906020018083116114a257829003601f168201915b5050505050905090565b6000600560008473ffffffffffffffffffffffffffffffffffffffff1673ffffffffffffffffffffffffffffffffffffffff16815260200190815260200160002060008373ffffffffffffffffffffffffffffffffffffffff1673ffffffffffffffffffffffffffffffffffffffff16815260200190815260200160002060009054906101000a900460ff16905092915050565b611565610fa7565b6115a4576040517f08c379a000000000000000000000000000000000000000000000000000000000815260040161159b90613aeb565b60405180910390fd5b6115ad81611bc8565b50565b6000806002600084815260200190815260200160002060009054906101000a900473ffffffffffffffffffffffffffffffffffffffff169050600073ffffffffffffffffffffffffffffffffffffffff168173ffffffffffffffffffffffffffffffffffffffff161415915050919050565b600033905090565b60008061163683610c15565b90508073ffffffffffffffffffffffffffffffffffffffff168473ffffffffffffffffffffffffffffffffffffffff1614806116a557508373ffffffffffffffffffffffffffffffffffffffff1661168d8461066f565b73ffffffffffffffffffffffffffffffffffffffff16145b806116b657506116b581856114c9565b5b91505092915050565b6116ca838383611cf6565b6116d48382611f75565b6116de8282612113565b505050565b6000826000015183602001518460400151846040516020016117089493929190613b4b565b60405160208183030381529060405280519060200120905092915050565b600073ffffffffffffffffffffffffffffffffffffffff166014600083815260200190815260200160002060000160009054906101000a900473ffffffffffffffffffffffffffffffffffffffff1673ffffffffffffffffffffffffffffffffffffffff16146117cb576040517f08c379a00000000000000000000000000000000000000000000000000000000081526004016117c290613acb565b60405180910390fd5b60405180604001604052808473ffffffffffffffffffffffffffffffffffffffff168152602001838152506014600083815260200190815260200160002060008201518160000160006101000a81548173ffffffffffffffffffffffffffffffffffffffff021916908373ffffffffffffffffffffffffffffffffffffffff160217905550602082015181600101559050507fb28582aaae510e6d1868676347916349fa4c0c49734e1a01e4373ff26a57f092838383604051611890939291906138f7565b60405180910390a1505050565b600081600001549050919050565b60006118cc8473ffffffffffffffffffffffffffffffffffffffff166121da565b6118d957600190506119ba565b60008473ffffffffffffffffffffffffffffffffffffffff1663150b7a02338887876040518563ffffffff1660e01b815260040161191a94939291906138ab565b602060405180830381600087803b15801561193457600080fd5b505af1158015611948573d6000803e3d6000fd5b505050506040513d601f19601f8201168201806040525061196c9190810190613056565b905063150b7a0260e01b7bffffffffffffffffffffffffffffffffffffffffffffffffffffffff1916817bffffffffffffffffffffffffffffffffffffffffffffffffffffffff1916149150505b949350505050565b60606000821415611a0a576040518060400160405280600181526020017f30000000000000000000000000000000000000000000000000000000000000008152509050611aea565b600082905060005b60008214611a34578080600101915050600a8281611a2c57fe5b049150611a12565b6060816040519080825280601f01601f191660200182016040528015611a695781602001600182028038833980820191505090505b50905060006001830390505b60008614611ae257600a8681611a8757fe5b0660300160f81b82828060019003935081518110611aa157fe5b60200101907effffffffffffffffffffffffffffffffffffffffffffffffffffffffffffff1916908160001a905350600a8681611ada57fe5b049550611a75565b819450505050505b919050565b6060611b2b8383604051806020016040528060008152506040518060200160405280600081525060405180602001604052806000815250612225565b905092915050565b611b3d82826124e7565b611b478282612113565b611b50816126e9565b5050565b611b5d826115b0565b611b9c576040517f08c379a0000000000000000000000000000000000000000000000000000000008152600401611b9390613a8b565b60405180910390fd5b80601260008481526020019081526020016000209080519060200190611bc39291906128d1565b505050565b600073ffffffffffffffffffffffffffffffffffffffff168173ffffffffffffffffffffffffffffffffffffffff161415611c38576040517f08c379a0000000000000000000000000000000000000000000000000000000008152600401611c2f90613a0b565b60405180910390fd5b8073ffffffffffffffffffffffffffffffffffffffff166000809054906101000a900473ffffffffffffffffffffffffffffffffffffffff1673ffffffffffffffffffffffffffffffffffffffff167f8be0079c531659141344cd1fd0a4f28419497f9722a3daafe3b4186f6b6457e060405160405180910390a3806000806101000a81548173ffffffffffffffffffffffffffffffffffffffff021916908373ffffffffffffffffffffffffffffffffffffffff16021790555050565b600060149054906101000a900460ff1615611d46576040517f08c379a0000000000000000000000000000000000000000000000000000000008152600401611d3d90613aab565b60405180910390fd5b8273ffffffffffffffffffffffffffffffffffffffff16611d6682610c15565b73ffffffffffffffffffffffffffffffffffffffff1614611dbc576040517f08c379a0000000000000000000000000000000000000000000000000000000008152600401611db3906139cb565b60405180910390fd5b600073ffffffffffffffffffffffffffffffffffffffff168273ffffffffffffffffffffffffffffffffffffffff161415611e2c576040517f08c379a0000000000000000000000000000000000000000000000000000000008152600401611e2390613a2b565b60405180910390fd5b611e3581612735565b611e7c600460008573ffffffffffffffffffffffffffffffffffffffff1673ffffffffffffffffffffffffffffffffffffffff1681526020019081526020016000206127f3565b611ec3600460008473ffffffffffffffffffffffffffffffffffffffff1673ffffffffffffffffffffffffffffffffffffffff168152602001908152602001600020612816565b816002600083815260200190815260200160002060006101000a81548173ffffffffffffffffffffffffffffffffffffffff021916908373ffffffffffffffffffffffffffffffffffffffff160217905550808273ffffffffffffffffffffffffffffffffffffffff168473ffffffffffffffffffffffffffffffffffffffff167fddf252ad1be2c89b69c2b068fc378daa952ba7f163c4a11628f55a4df523b3ef60405160405180910390a4505050565b6000611fcd6001600660008673ffffffffffffffffffffffffffffffffffffffff1673ffffffffffffffffffffffffffffffffffffffff1681526020019081526020016000208054905061282c90919063ffffffff16565b90506000600760008481526020019081526020016000205490508181146120ba576000600660008673ffffffffffffffffffffffffffffffffffffffff1673ffffffffffffffffffffffffffffffffffffffff168152602001908152602001600020838154811061203a57fe5b9060005260206000200154905080600660008773ffffffffffffffffffffffffffffffffffffffff1673ffffffffffffffffffffffffffffffffffffffff168152602001908152602001600020838154811061209257fe5b9060005260206000200181905550816007600083815260200190815260200160002081905550505b600660008573ffffffffffffffffffffffffffffffffffffffff1673ffffffffffffffffffffffffffffffffffffffff16815260200190815260200160002080548091906001900361210c9190612951565b5050505050565b600660008373ffffffffffffffffffffffffffffffffffffffff1673ffffffffffffffffffffffffffffffffffffffff168152602001908152602001600020805490506007600083815260200190815260200160002081905550600660008373ffffffffffffffffffffffffffffffffffffffff1673ffffffffffffffffffffffffffffffffffffffff1681526020019081526020016000208190806001815401808255809150509060018203906000526020600020016000909192909190915055505050565b60008060007fc5d2460186f7233c927e7db2dcc703c0e500b653ca82273b7bfad8045d85a47060001b9050833f915080821415801561221c57506000801b8214155b92505050919050565b6060808690506060869050606086905060608690506060869050606081518351855187518951010101016040519080825280601f01601f1916602001820160405280156122815781602001600182028038833980820191505090505b509050606081905060008090506000809050600090505b8851811015612306578881815181106122ad57fe5b602001015160f81c60f81b8383806001019450815181106122ca57fe5b60200101907effffffffffffffffffffffffffffffffffffffffffffffffffffffffffffff1916908160001a9053508080600101915050612298565b600090505b87518110156123795787818151811061232057fe5b602001015160f81c60f81b83838060010194508151811061233d57fe5b60200101907effffffffffffffffffffffffffffffffffffffffffffffffffffffffffffff1916908160001a905350808060010191505061230b565b600090505b86518110156123ec5786818151811061239357fe5b602001015160f81c60f81b8383806001019450815181106123b057fe5b60200101907effffffffffffffffffffffffffffffffffffffffffffffffffffffffffffff1916908160001a905350808060010191505061237e565b600090505b855181101561245f5785818151811061240657fe5b602001015160f81c60f81b83838060010194508151811061242357fe5b60200101907effffffffffffffffffffffffffffffffffffffffffffffffffffffffffffff1916908160001a90535080806001019150506123f1565b600090505b84518110156124d25784818151811061247957fe5b602001015160f81c60f81b83838060010194508151811061249657fe5b60200101907effffffffffffffffffffffffffffffffffffffffffffffffffffffffffffff1916908160001a9053508080600101915050612464565b82995050505050505050505095945050505050565b600060149054906101000a900460ff1615612537576040517f08c379a000000000000000000000000000000000000000000000000000000000815260040161252e90613aab565b60405180910390fd5b600073ffffffffffffffffffffffffffffffffffffffff168273ffffffffffffffffffffffffffffffffffffffff1614156125a7576040517f08c379a000000000000000000000000000000000000000000000000000000000815260040161259e906139ab565b60405180910390fd5b6125b0816115b0565b156125f0576040517f08c379a00000000000000000000000000000000000000000000000000000000081526004016125e790613a4b565b60405180910390fd5b816002600083815260200190815260200160002060006101000a81548173ffffffffffffffffffffffffffffffffffffffff021916908373ffffffffffffffffffffffffffffffffffffffff160217905550612689600460008473ffffffffffffffffffffffffffffffffffffffff1673ffffffffffffffffffffffffffffffffffffffff168152602001908152602001600020612816565b808273ffffffffffffffffffffffffffffffffffffffff16600073ffffffffffffffffffffffffffffffffffffffff167fddf252ad1be2c89b69c2b068fc378daa952ba7f163c4a11628f55a4df523b3ef60405160405180910390a45050565b6008805490506009600083815260200190815260200160002081905550600881908060018154018082558091505090600182039060005260206000200160009091929091909150555050565b600073ffffffffffffffffffffffffffffffffffffffff166003600083815260200190815260200160002060009054906101000a900473ffffffffffffffffffffffffffffffffffffffff1673ffffffffffffffffffffffffffffffffffffffff16146127f05760006003600083815260200190815260200160002060006101000a81548173ffffffffffffffffffffffffffffffffffffffff021916908373ffffffffffffffffffffffffffffffffffffffff1602179055505b50565b61280b6001826000015461282c90919063ffffffff16565b816000018190555050565b6001816000016000828254019250508190555050565b600061286e83836040518060400160405280601e81526020017f536166654d6174683a207375627472616374696f6e206f766572666c6f770000815250612876565b905092915050565b60008383111582906128be576040517f08c379a00000000000000000000000000000000000000000000000000000000081526004016128b59190613949565b60405180910390fd5b5060008385039050809150509392505050565b828054600181600116156101000203166002900490600052602060002090601f016020900481019282601f1061291257805160ff1916838001178555612940565b82800160010185558215612940579182015b8281111561293f578251825591602001919060010190612924565b5b50905061294d919061297d565b5090565b81548183558181111561297857818360005260206000209182019101612977919061297d565b5b505050565b61299f91905b8082111561299b576000816000905550600101612983565b5090565b90565b6000813590506129b181613e3a565b92915050565b600082601f8301126129c857600080fd5b60026129db6129d682613c05565b613bd8565b915081838560208402820111156129f157600080fd5b60005b83811015612a215781612a078882612ca9565b8452602084019350602083019250506001810190506129f4565b5050505092915050565b600082601f830112612a3c57600080fd5b6002612a4f612a4a82613c27565b613bd8565b91508183856020840282011115612a6557600080fd5b60005b83811015612a955781612a7b8882612ca9565b845260208401935060208301925050600181019050612a68565b5050505092915050565b600081359050612aae81613e51565b92915050565b600081519050612ac381613e51565b92915050565b600081359050612ad881613e68565b92915050565b600081359050612aed81613e7f565b92915050565b600081519050612b0281613e7f565b92915050565b600082601f830112612b1957600080fd5b8135612b2c612b2782613c49565b613bd8565b91508082526020830160208301858383011115612b4857600080fd5b612b53838284613de7565b50505092915050565b600082601f830112612b6d57600080fd5b8135612b80612b7b82613c75565b613bd8565b91508082526020830160208301858383011115612b9c57600080fd5b612ba7838284613de7565b50505092915050565b600060408284031215612bc257600080fd5b612bcc6040613bd8565b90506000612bdc84828501612ca9565b6000830152506020612bf084828501612ca9565b60208301525092915050565b600060808284031215612c0e57600080fd5b612c186040613bd8565b90506000612c28848285016129b7565b6000830152506040612c3c848285016129b7565b60208301525092915050565b60006101008284031215612c5b57600080fd5b612c656060613bd8565b90506000612c7584828501612bb0565b6000830152506040612c8984828501612bfc565b60208301525060c0612c9d84828501612bb0565b60408301525092915050565b600081359050612cb881613e96565b92915050565b600060208284031215612cd057600080fd5b6000612cde848285016129a2565b91505092915050565b60008060408385031215612cfa57600080fd5b6000612d08858286016129a2565b9250506020612d19858286016129a2565b9150509250929050565b600080600060608486031215612d3857600080fd5b6000612d46868287016129a2565b9350506020612d57868287016129a2565b9250506040612d6886828701612ca9565b9150509250925092565b60008060008060808587031215612d8857600080fd5b6000612d96878288016129a2565b9450506020612da7878288016129a2565b9350506040612db887828801612ca9565b925050606085013567ffffffffffffffff811115612dd557600080fd5b612de187828801612b08565b91505092959194509250565b60008060408385031215612e0057600080fd5b6000612e0e858286016129a2565b9250506020612e1f85828601612a9f565b9150509250929050565b60008060408385031215612e3c57600080fd5b6000612e4a858286016129a2565b9250506020612e5b85828601612ca9565b9150509250929050565b600080600060608486031215612e7a57600080fd5b6000612e88868287016129a2565b9350506020612e9986828701612ca9565b925050604084013567ffffffffffffffff811115612eb657600080fd5b612ec286828701612b5c565b9150509250925092565b6000806000806101808587031215612ee357600080fd5b6000612ef1878288016129a2565b9450506020612f0287828801612ca9565b9350506040612f1387828801612c48565b925050610140612f2587828801612a2b565b91505092959194509250565b600060208284031215612f4357600080fd5b6000612f5184828501612ab4565b91505092915050565b60008060408385031215612f6d57600080fd5b6000612f7b85828601612ac9565b925050602083013567ffffffffffffffff811115612f9857600080fd5b612fa485828601612b5c565b9150509250929050565b600080600060608486031215612fc357600080fd5b6000612fd186828701612ac9565b935050602084013567ffffffffffffffff811115612fee57600080fd5b612ffa86828701612b5c565b925050604084013567ffffffffffffffff81111561301757600080fd5b61302386828701612b08565b9150509250925092565b60006020828403121561303f57600080fd5b600061304d84828501612ade565b91505092915050565b60006020828403121561306857600080fd5b600061307684828501612af3565b91505092915050565b60006020828403121561309157600080fd5b600061309f84828501612ca9565b91505092915050565b60006130b48383613857565b60208301905092915050565b6130c981613db1565b82525050565b6130d881613d33565b82525050565b6130e781613cc0565b6130f18184613d06565b92506130fc82613cab565b8060005b8381101561312d57815161311487826130a8565b965061311f83613cee565b925050600181019050613100565b505050505050565b61313e81613cb5565b6131488184613cfb565b925061315382613ca1565b8060005b8381101561318457815161316b87826130a8565b965061317683613ce1565b925050600181019050613157565b505050505050565b61319581613d45565b82525050565b6131a481613d51565b82525050565b60006131b582613ccb565b6131bf8185613d11565b93506131cf818560208601613df6565b6131d881613e29565b840191505092915050565b60006131ee82613cd6565b6131f88185613d22565b9350613208818560208601613df6565b61321181613e29565b840191505092915050565b6000613229601483613d22565b91507f5061757361626c653a206e6f74207061757365640000000000000000000000006000830152602082019050919050565b6000613269602883613d22565b91507f4552433732313a2063616e206e6f7420617070726f766520746f20637572726560008301527f6e74206f776e65720000000000000000000000000000000000000000000000006020830152604082019050919050565b60006132cf602883613d22565b91507f4552433732313a20696e76616c6964206d696e7420746f20746865207a65726f60008301527f20616464726573730000000000000000000000000000000000000000000000006020830152604082019050919050565b6000613335603783613d22565b91507f4552433732313a2066726f6d206d75737420626520746865206f776e6572206f60008301527f662074686520746f6b656e20746f207472616e736665720000000000000000006020830152604082019050919050565b600061339b602983613d22565b91507f536f6c6e53717561726556657269666965723a20736f6c7574696f6e206e6f7460008301527f20766572696669656400000000000000000000000000000000000000000000006020830152604082019050919050565b6000613401602683613d22565b91507f4f776e61626c653a206e6577206f776e657220697320746865207a65726f206160008301527f64647265737300000000000000000000000000000000000000000000000000006020830152604082019050919050565b6000613467602c83613d22565b91507f4552433732313a2063616e206e6f74207472616e7366657220746f207468652060008301527f7a65726f206164647265737300000000000000000000000000000000000000006020830152604082019050919050565b60006134cd601c83613d22565b91507f4552433732313a20746f6b656e20616c726561647920657869737473000000006000830152602082019050919050565b600061350d603983613d22565b91507f4552433732313a2063616e206e6f7420617070726f7665206966206e6f74206f60008301527f776e6572206e6f7220617070726f76656420666f7220616c6c000000000000006020830152604082019050919050565b6000613573602483613d22565b91507f4552433732314d657461646174613a20746f6b656e20646f6573206e6f74206560008301527f78697374000000000000000000000000000000000000000000000000000000006020830152604082019050919050565b60006135d9601083613d22565b91507f5061757361626c653a20706175736564000000000000000000000000000000006000830152602082019050919050565b6000613619602983613d22565b91507f536f6c6e53717561726556657269666965723a20736f6c7574696f6e20616c7260008301527f65616479207573656400000000000000000000000000000000000000000000006020830152604082019050919050565b600061367f602083613d22565b91507f4f776e61626c653a2063616c6c6572206973206e6f7420746865206f776e65726000830152602082019050919050565b60006136bf602d83613d22565b91507f4552433732313a206e6f2062616c616e636520717565727920666f722074686560008301527f207a65726f2061646472657373000000000000000000000000000000000000006020830152604082019050919050565b6000613725601c83613d22565b91507f4552433732313a20746f6b656e20646f6573206e6f74206578697374000000006000830152602082019050919050565b60408201600082015161376e6000850182613857565b5060208201516137816020850182613857565b50505050565b60408201600082015161379d6000850182613857565b5060208201516137b06020850182613857565b50505050565b6080820160008201516137cc6000850182613135565b5060208201516137df6040850182613135565b50505050565b6080820160008201516137fb6000850182613135565b50602082015161380e6040850182613135565b50505050565b6101008201600082015161382b6000850182613758565b50602082015161383e60408501826137b6565b50604082015161385160c0850182613758565b50505050565b61386081613da7565b82525050565b61386f81613da7565b82525050565b600060208201905061388a60008301846130cf565b92915050565b60006020820190506138a560008301846130c0565b92915050565b60006080820190506138c060008301876130c0565b6138cd60208301866130cf565b6138da6040830185613866565b81810360608301526138ec81846131aa565b905095945050505050565b600060608201905061390c60008301866130cf565b6139196020830185613866565b613926604083018461319b565b949350505050565b6000602082019050613943600083018461318c565b92915050565b6000602082019050818103600083015261396381846131e3565b905092915050565b600060208201905081810360008301526139848161321c565b9050919050565b600060208201905081810360008301526139a48161325c565b9050919050565b600060208201905081810360008301526139c4816132c2565b9050919050565b600060208201905081810360008301526139e481613328565b9050919050565b60006020820190508181036000830152613a048161338e565b9050919050565b60006020820190508181036000830152613a24816133f4565b9050919050565b60006020820190508181036000830152613a448161345a565b9050919050565b60006020820190508181036000830152613a64816134c0565b9050919050565b60006020820190508181036000830152613a8481613500565b9050919050565b60006020820190508181036000830152613aa481613566565b9050919050565b60006020820190508181036000830152613ac4816135cc565b9050919050565b60006020820190508181036000830152613ae48161360c565b9050919050565b60006020820190508181036000830152613b0481613672565b9050919050565b60006020820190508181036000830152613b24816136b2565b9050919050565b60006020820190508181036000830152613b4481613718565b9050919050565b600061014082019050613b616000830187613787565b613b6e60408301866137e5565b613b7b60c0830185613787565b613b896101008301846130de565b95945050505050565b600061014082019050613ba86000830185613814565b613bb66101008301846130de565b9392505050565b6000602082019050613bd26000830184613866565b92915050565b6000604051905081810181811067ffffffffffffffff82111715613bfb57600080fd5b8060405250919050565b600067ffffffffffffffff821115613c1c57600080fd5b602082029050919050565b600067ffffffffffffffff821115613c3e57600080fd5b602082029050919050565b600067ffffffffffffffff821115613c6057600080fd5b601f19601f8301169050602081019050919050565b600067ffffffffffffffff821115613c8c57600080fd5b601f19601f8301169050602081019050919050565b6000819050919050565b6000819050919050565b600060029050919050565b600060029050919050565b600081519050919050565b600081519050919050565b6000602082019050919050565b6000602082019050919050565b600081905092915050565b600081905092915050565b600082825260208201905092915050565b600082825260208201905092915050565b6000613d3e82613d87565b9050919050565b60008115159050919050565b6000819050919050565b60007fffffffff0000000000000000000000000000000000000000000000000000000082169050919050565b600073ffffffffffffffffffffffffffffffffffffffff82169050919050565b6000819050919050565b6000613dbc82613dc3565b9050919050565b6000613dce82613dd5565b9050919050565b6000613de082613d87565b9050919050565b82818337600083830152505050565b60005b83811015613e14578082015181840152602081019050613df9565b83811115613e23576000848401525b50505050565b6000601f19601f8301169050919050565b613e4381613d33565b8114613e4e57600080fd5b50565b613e5a81613d45565b8114613e6557600080fd5b50565b613e7181613d51565b8114613e7c57600080fd5b50565b613e8881613d5b565b8114613e9357600080fd5b50565b613e9f81613da7565b8114613eaa57600080fd5b5056fea365627a7a7231582039d025de4adf55f18f22ce7f3de160d82d729bab167be2c9f72136e98e528cc06c6578706572696d656e74616cf564736f6c6343000510004068747470733a2f2f73332d75732d776573742d322e616d617a6f6e6177732e636f6d2f756461636974792d626c6f636b636861696e2f63617073746f6e652f",
  "source": "pragma solidity >=0.4.21 <0.6.0;\npragma experimental ABIEncoderV2;\n\nimport \"./ERC721Mintable.sol\";\nimport \"./SquareVerifier.sol\";\n\ncontract SolnSquareVerifier is ERC721Mintable {\n\n    event SolutionAdded(address to, uint256 tokenId, bytes32 proofHash);\n\n    SquareVerifier private _verifier;\n\n    struct Solution {\n        address to;\n        uint256 tokenId;\n    }\n\n    mapping(bytes32 => Solution) private _solutions;\n\n\n    constructor (address verifierContract) ERC721Mintable(\n        \"Real State Homes\",\n        \"RSH\",\n        \"https://s3-us-west-2.amazonaws.com/udacity-blockchain/capstone/\"\n    ) public {\n        _verifier = SquareVerifier(verifierContract);\n    }\n\n    function addSolution(address to, uint256 tokenId, bytes32 proofHash) internal {\n        require(_solutions[proofHash].to == address(0), \"SolnSquareVerifier: solution already used\");\n\n        _solutions[proofHash]= Solution({to: to, tokenId: tokenId});\n\n        emit SolutionAdded(to, tokenId, proofHash);\n    }\n\n    function mint(address to, uint256 tokenId, SquareVerifier.Proof memory proof, uint[2] memory inputs) public {\n        require(_verifier.verifyTx(proof, inputs), \"SolnSquareVerifier: solution not verified\");\n\n        addSolution(to, tokenId, _getProofHash(proof, inputs));\n        super.mint(to, tokenId, \"\");\n    }\n\n    function _getProofHash(SquareVerifier.Proof memory proof, uint[2] memory inputs) internal pure returns (bytes32)\n    {\n        return keccak256(abi.encode(proof.a, proof.b, proof.c, inputs));\n    }\n}\n\n\n\n\n\n\n\n\n\n\n\n\n\n\n\n\n\n\n\n\n\n\n\n\n\n\n",
  "sourcePath": "/Users/sangarbe/Workspace/learning/blockchain-project-5/eth-contracts/contracts/SolnSquareVerifier.sol",
  "compiler": {
    "name": "solc",
    "version": "0.5.16+commit.9c3226ce.Emscripten.clang"
  },
  "schemaVersion": "3.4.6",
  "updatedAt": "2022-05-27T13:09:08.743Z",
  "networkType": "ethereum",
  "devdoc": {
    "methods": {
      "approve(address,uint256)": {
        "details": "Approves another address to transfer the given token ID"
      },
      "isApprovedForAll(address,address)": {
        "details": "Tells whether an operator is approved by a given owner",
        "params": {
          "operator": "operator address which you want to query the approval of",
          "owner": "owner address which you want to query the approval of"
        },
        "return": "bool whether the given operator is approved by the given owner"
      },
      "isOwner()": {
        "details": "Returns true if the caller is the current owner."
      },
      "mint(address,uint256,string)": {
        "details": "Function to mint tokens.",
        "params": {
          "to": "The address that will receive the minted tokens.",
          "tokenId": "The token id to mint.",
          "tokenURI": "The token URI of the minted token."
        },
        "return": "A boolean that indicates if the operation was successful."
      },
      "owner()": {
        "details": "Returns the address of the current owner."
      },
      "pause()": {
        "details": "Called by owner to pause the contract."
      },
      "paused()": {
        "details": "Returns true if the contract is paused, and false otherwise."
      },
      "renounceOwnership()": {
        "details": "Leaves the contract without owner. It will not be possible to call `onlyOwner` functions anymore. Can only be called by the current owner.     * NOTE: Renouncing ownership will leave the contract without an owner, thereby removing any functionality that is only available to the owner."
      },
      "setApprovalForAll(address,bool)": {
        "details": "Sets or unsets the approval of a given operator An operator is allowed to transfer all tokens of the sender on their behalf",
        "params": {
          "approved": "representing the status of the approval to be set",
          "to": "operator address to set the approval"
        }
      },
      "supportsInterface(bytes4)": {
        "details": "See {IERC165-supportsInterface}.     * Time complexity O(1), guaranteed to always use less than 30 000 gas."
      },
      "tokenByIndex(uint256)": {
        "details": "Gets the token ID at a given index of all the tokens in this contract Reverts if the index is greater or equal to the total number of tokens",
        "params": {
          "index": "uint256 representing the index to be accessed of the tokens list"
        },
        "return": "uint256 token ID at the given index of the tokens list"
      },
      "tokenOfOwnerByIndex(address,uint256)": {
        "details": "Gets the token ID at a given index of the tokens list of the requested owner",
        "params": {
          "index": "uint256 representing the index to be accessed of the requested tokens list",
          "owner": "address owning the tokens list to be accessed"
        },
        "return": "uint256 token ID at the given index of the tokens list owned by the requested address"
      },
      "totalSupply()": {
        "details": "Gets the total amount of tokens stored by the contract",
        "return": "uint256 representing the total amount of tokens"
      },
      "transferOwnership(address)": {
        "details": "Transfers ownership of the contract to a new account (`newOwner`). Can only be called by the current owner."
      },
      "unpause()": {
        "details": "Called by owner to unpause the contract."
      }
    }
  },
  "userdoc": {
    "methods": {}
  }
}